:020000040800F2
:100000000080002099410008B13F0008B73F000878
:1000100000000000000000000000000000000000E0
:10002000000000000000000000000000BD3F0008CC
:100030000000000000000000C73F0008D13F00089A
:10004000E941000800000000E9410008E94100081A
:10005000E9410008E9410008E9410008E9410008D8
:1000600000000000E9410008E9410008E9410008FA
:10007000E13F0008E9410008E941000800000000F4
:10008000E9410008E9410008E9410008E9410008A8
:10009000E9410008E9410008E9410008E941000898
:1000A000E9410008E9410008E9410008E941000888
:0C00B000F93F0008E941000800000000D2
:1000BC0010B5064C2378002B07D1054B002B02D032
:1000CC00044800E000BF0123237010BDE4010020B0
:1000DC000000000070AC0008044B10B5002B03D0DE
:1000EC000349044800E000BF10BDC04600000000FA
:1000FC00E801002070AC00080023C25C0133002A28
:10010C00FBD1581E7047000002B4714649084900E3
:10011C00095C49008E4402BC7047C04603B471466A
:10012C00490840004900095E49008E4403BC7047F1
:10013C00002243088B4274D303098B425FD3030A1A
:10014C008B4244D3030B8B4228D3030C8B420DD32D
:10015C00FF22090212BA030C8B4202D312120902BB
:10016C0065D0030B8B4219D300E0090AC30B8B42F9
:10017C0001D3CB03C01A5241830B8B4201D38B03A7
:10018C00C01A5241430B8B4201D34B03C01A52414C
:10019C00030B8B4201D30B03C01A5241C30A8B428F
:1001AC0001D3CB02C01A5241830A8B4201D38B027A
:1001BC00C01A5241430A8B4201D34B02C01A52411E
:1001CC00030A8B4201D30B02C01A5241CDD2C30990
:1001DC008B4201D3CB01C01A524183098B4201D30C
:1001EC008B01C01A524143098B4201D34B01C01AF7
:1001FC00524103098B4201D30B01C01A5241C3086F
:10020C008B4201D3CB00C01A524183088B4201D3DD
:10021C008B00C01A524143088B4201D34B00C01AC9
:10022C005241411A00D20146524110467047FFE735
:10023C0001B5002000F0F0F802BDC0460029F7D04F
:10024C0076E7704703460B437FD4002243088B426A
:10025C0074D303098B425FD3030A8B4244D3030B41
:10026C008B4228D3030C8B420DD3FF22090212BA06
:10027C00030C8B4202D31212090265D0030B8B4282
:10028C0019D300E0090AC30B8B4201D3CB03C01A6C
:10029C005241830B8B4201D38B03C01A5241430B47
:1002AC008B4201D34B03C01A5241030B8B4201D337
:1002BC000B03C01A5241C30A8B4201D3CB02C01AA2
:1002CC005241830A8B4201D38B02C01A5241430A1A
:1002DC008B4201D34B02C01A5241030A8B4201D309
:1002EC000B02C01A5241CDD2C3098B4201D3CB01B0
:1002FC00C01A524183098B4201D38B01C01A52415F
:10030C0043098B4201D34B01C01A524103098B4262
:10031C0001D30B01C01A5241C3088B4201D3CB004D
:10032C00C01A524183088B4201D38B00C01A524130
:10033C0043088B4201D34B00C01A5241411A00D2E0
:10034C0001465241104670475DE0CA0F00D0494249
:10035C00031000D34042534000229C4603098B42B9
:10036C002DD3030A8B4212D3FC22890112BA030A41
:10037C008B420CD3890192118B4208D389019211C3
:10038C008B4204D389013AD0921100E08909C30948
:10039C008B4201D3CB01C01A524183098B4201D34A
:1003AC008B01C01A524143098B4201D34B01C01A35
:1003BC00524103098B4201D30B01C01A5241C308AD
:1003CC008B4201D3CB00C01A524183088B4201D31C
:1003DC008B00C01A5241D9D243088B4201D34B0037
:1003EC00C01A5241411A00D20146634652415B1079
:1003FC00104601D34042002B00D54942704763465A
:10040C005B1000D3404201B5002000F005F802BD9E
:10041C000029F8D016E770477047C0468446101C78
:10042C0062468C46191C634600E0C0461FB501F0BD
:10043C005DFA002801D40021C8421FBD10B501F09F
:10044C00A7F94042013010BD10B501F04FFA002859
:10045C0001DB002010BD012010BDC04610B501F01D
:10046C0045FA002801DD002010BD012010BDC0465A
:10047C0010B501F0C9F9002801DC002010BD0120E5
:10048C0010BDC04610B501F0BFF9002801DA0020FC
:10049C0010BD012010BDC046F0B54646D6464F46AD
:1004AC004D024202C0B5520A6E0A4700B0463F0EDA
:1004BC004E00C40FD00094463B008246360EC90F46
:1004CC00AD098C426DD0B81B814600284DDD002E45
:1004DC0000D188E0FF2F5AD08023DB041D434B460C
:1004EC0001221B2B0ADC2B004A464946D340202212
:1004FC00521A95402A00551EAA411A4353469A1A7D
:10050C00530100D4B9E092019609300002F0D6F9FB
:10051C0005388640874200DDD4E03300C71B20201D
:10052C000137FB40C71BBE403200561EB2410027AC
:10053C001A43530704D00F231340042B00D004326A
:10054C00530100D49CE07B1CFE2F00D19AE0920159
:10055C00520A9446DBB2D8056346E407184320439D
:10056C00E0BCBA46B146A846F0BD002849D0F31B02
:10057C00002F00D0B6E05246002A60D0013B002B81
:10058C0000D1FCE0FF2E00D0B4E00C004246002A63
:10059C0078D08020C00310434202530A9C46FF23AC
:1005AC00D9E7B91B002971DD002E3FD0FF2FEED00B
:1005BC008023DB041D4301221B2907DC2A00202396
:1005CC00CA40591A8D406B1E9D412A435244530117
:1005DC0053D50137FF2F55D001237B4913405208C7
:1005EC000A401A43A5E7002D2CD001235B429C4600
:1005FC00E1444B46002B00D1ADE0FF2F00D06EE75D
:10060C00C5E7FE207E1C304260D1002F00D093E065
:10061C005246002A00D1B6E0002D9CD0521B50014E
:10062C0000D4C3E053460C00EA1A82E7002D09D02F
:10063C000139002900D18BE0FF2FBCD1A7E70C00BA
:10064C0042463700FF2FA2D05202530A9C46FBB2FF
:10065C0081E7FE210137394265D1002B7ED100287C
:10066C0000D1AAE0002D00D175E72A0052440027E2
:10067C00530102D5554B01371A40530700D05AE7A6
:10068C00D208DFE70022FF23944664E70029E0D07C
:10069C00F31B002F3ED0FF2E00D177E78022010004
:1006AC00D20411438A4601221B2B08DC524620211E
:1006BC005046DA40CB1A9840431E9841024337000B
:1006CC00521984E7414A3F1A324032E753465E1BC7
:1006DC0073012DD4002E00D017E700220024002334
:1006EC00944638E7FF2E00D14FE780225046D204C3
:1006FC001043824601221B2B08DC52462024504614
:10070C00DA40E31A9840431E984102430C0037002C
:10071C00AA1AF5E6002893D0013B002B4FD0FF2EF0
:10072C00C1D1424633E7FF2FACD055446A08A4E749
:10073C0053460C00EE1AE8E65346002B28D1002D48
:10074C0000D022E78023DB039C460024FF2302E732
:10075C002A0052443BE753465A1BD1E6002800D1ED
:10076C0014E7002D00D112E78023DB031A4200D1DD
:10077C000DE74146194200D009E7424607E70C0055
:10078C003700AA1ABCE6002D13D00C00C446E2E6D2
:10079C00002D00D1FBE68023DB031A4200D1F6E6E4
:1007AC004046184200D0F2E60C00EFE6002A00D0DA
:1007BC0063E7002200249446CDE6C446CBE62A002B
:1007CC003700524403E7C046FFFFFF7DFFFFFFFBEE
:1007DC00F0B54F464646D6464502C0B547000C1C00
:1007EC006D0A3F0EC60F002F66D0FF2F6CD0002372
:1007FC00EA00802599469A46ED0415437F3F600236
:10080C006100430A9846090EE40F002948D0FF29DD
:10081C0010D08022D800D2040243904600207F39A9
:10082C004A4633007F1A02436C4992008A5863404F
:10083C00DBB29746002B6DD10220FF3F33E0002343
:10084C0098462600454682465346022B00D17FE04F
:10085C00032B00D194E0012B17D038007F300028F7
:10086C005FDD6B0704D00F232B40042B00D0043525
:10087C002B0103D538005A4B80301D40FE2867DC15
:10088C00AD016D0AC0B202E01E0000200025C005BB
:10089C002843F6073043E0BCBA46B146A846F0BD43
:1008AC00002B2BD101204A4633004E4902439200C3
:1008BC008A586340DBB29746002D13D10423994626
:1008CC00033B00279A469AE7002D05D10823994649
:1008DC00063BFF279A4692E70C239946093BFF27D4
:1008EC009A468CE7280001F0E9FF7627431F9D40CC
:1008FC0000237F4299469A463F1A80E7180001F080
:10090C00DDFF4246431F76219A404942091A904620
:10091C00002085E7FF21032082E71E00FF20002531
:10092C00B5E701231B1A1B2BAFDC9E372900BD40FA
:10093C00D9406A1E95410D436B0704D00F232B4001
:10094C00042B00D004356B0144D5012000259EE713
:10095C00FF2000259BE780250026FF20ED0396E76E
:10096C00002398468020C003054209D04346034229
:10097C0006D1454605436D022600FF206D0A86E729
:10098C008020C00305436D02FF206D0A7FE74146BE
:10099C006A014801824219D21B210025013F012620
:1009AC0014006D005200002C01DB904201D8121A89
:1009BC00354301390029F3D1501E824138007F3074
:1009CC001E001543002800DD4BE7AAE71A2101257C
:1009DC00121AE4E7AD0100206D0A58E7C8AC000814
:1009EC00FFFFFFF708AD000870B5002813D0C31740
:1009FC00C5185D40C40F280001F060FF9E23010064
:100A0C001B1A962B0FDC082801DD08398D406D026E
:100A1C006D0AD8B202E0002400200025C00528434E
:100A2C00E407204370BD992B0BDD05222E00121A12
:100A3C00D64002001B3295402800451EA8413500C7
:100A4C000543052901DD4A1F95402A00084E324016
:100A5C00680709D00F202840042805D00432500123
:100A6C0002D59F2332405B1A9201550AD8B2D5E7C2
:100A7C00FFFFFFFB70B5051E0ED001F01FFF9E237C
:100A8C0004001B1A962B0CDC082801DD083CA54041
:100A9C006D026D0AD8B201E000200025C005284384
:100AAC0070BD992B09DD020029001B3291404A1EB2
:100ABC0091410522121AD5400D43052C01DD621F10
:100ACC0095402900084E31406A0709D00F20284074
:100ADC00042805D004314A0102D59F2331401B1B49
:100AEC0089014D0AD8B2D9E7FFFFFFFBF0B54F469D
:100AFC00D64646460D0001001800C0B517002B0362
:100B0C005A0A4B0F1343CA00914602036E00410070
:100B1C00520AEC0F7D0F1543760D490DC00F82461E
:100B2C00AC46FF00721A844200D198E0002A00DC27
:100B3C0081E0002900D1B6E0C9498E4200D172E1B2
:100B4C0080212800090408438446382A00DD5EE130
:100B5C001F2A00DDEEE1202039006546801A87400F
:100B6C00D14085400D4339004F1EB9416746D740EF
:100B7C002943DB1B4A46551AA945894149425B1A50
:100B8C00984643461B0200D4CCE043465B025B0A0A
:100B9C0098464346002B00D12CE1404601F08EFED6
:100BAC0001000839202228004346521A8B40D040BD
:100BBC008D4003438E4200DD17E18E1B721C1F2AF1
:100BCC0000DDA7E1202118002E00891A8D408840F5
:100BDC00D640D340691E8D413043984600260543CC
:100BEC006B0709D00F232B40042B05D02B1DAB42D8
:100BFC00AD416D42A8441D0043461B0200D494E055
:100C0C00974B721C9A4200D19DE04146954BED08E2
:100C1C0019400B00520549075B0229431B0B520D6F
:100C2C0012051343E407234308001900E0BCBA463D
:100C3C00B146A846F0BD002A43D08A1B002E00D036
:100C4C002AE14C461C4300D1D1E1541E012A00D1AB
:100C5C001FE2834DAA4200D172E2220023E1002A56
:100C6C0000DC98E0002942D07D498E4200D1DAE0C8
:100C7C0080212800090408438446382A00DD29E134
:100C8C001F2A00DC87E1110065462039CD40202A5F
:100C9C0004D040206146821A91400F4339004F1E08
:100CAC00B9410D431BE12900394300D1B5E0511E78
:100CBC00012A00D1ABE16A48824200D1B2E10A00BC
:100CCC0043E76949751C0D4200D0CFE0002E00D0DF
:100CDC0093E14946194300D1D1E16146394300D033
:100CEC00E3E149465807C9080143DB0826E029001F
:100CFC00394300D191E0511E012A05D05848824257
:100D0C0000D18FE10A00B8E73D004D444D458941C3
:100D1C006344984649428844434602261B0200D548
:100D2C00EBE0013E6B0700D05CE74346E9085A074D
:100D3C0011433200DB084A48824221D01B03520582
:100D4C001B0B520D6CE70023002169E72A003A4384
:100D5C0069D04A465807D108DA0880231B03084398
:100D6C001A4207D02900ED081D4203D12A00FF08C2
:100D7C0048073843430FC1005B07C90819431300E8
:100D8C000A001A4300D113E28022120313431B03FF
:100D9C00334A1B0B44E7002A4BD08A1B002E00D190
:100DAC00E7E02F48814200D195E180200004034305
:100DBC00382A00DD43E11F2A00DDDBE120201D0085
:100DCC004E46801A8540D64035434E46864030000C
:100DDC00D340461EB0419C440543ED19BD429B4196
:100DEC005B42634498460E007FE01E4A761A13401D
:100DFC009846F5E6280001F061FD010018311F2925
:100E0C0000DCCFE62B00083883400025D2E6624692
:100E1C003A4311004F1EB941ACE649465807C90880
:100E2C000143DB0887E749465A07C9081143DB0829
:100E3C00A6E70D49701C084200D0BBE0002E00D084
:100E4C0014E14946194300D175E12900394300D01A
:100E5C007EE149465807C9080143DB086EE7C046E6
:100E6C00FF070000FFFF7FFFFE0700004946CD1B78
:100E7C006146581AA94589414942884601004046B5
:100E8C00091A8846090200D5A6E04146294300D03C
:100E9C007FE60023002451E7C74CA14200D1C7E0F4
:100EAC00802424042343382A54DC1F2A00DDCCE0A0
:100EBC0020244846A41A1D004E46A040D640A5400A
:100ECC000400D34062463543661EB441D31A9C4697
:100EDC00254344E062463A4315006F1EBD414D4424
:100EEC004D45894149428846984443461B0200D4EB
:100EFC0018E7B14B01369E4249D04246AF4B012117
:100F0C001A4013006A080D401543D9075B08984630
:100F1C000D4365E618001F3EF040202A03D0402107
:100F2C008A1A93401D43691E8D4100230026984662
:100F3C000543F7E6110065462039CD40202A04D040
:100F4C0040206146821A91400F4339004F1EB9412F
:100F5C0029430FE64A4613431D006B1E9D417D1B22
:100F6C00AF429B4162465B42D31A984654460E00F0
:100F7C0007E64846184300D1B3E0501E012A00D1C1
:100F8C000DE18D4DAA4200D1A5E0020010E7320020
:100F9C000023002144E620213800891A65468F4041
:100FAC008D40D040791E8F4105433D436746D74065
:100FBC00DB1994E7804A904200D1ECE039004944B7
:100FCC0049459241634452429B18DD0749085B082E
:100FDC00984606000D43A5E64A46BD1AAF42894124
:100FEC0062464942D31A5B1A98465446D1E56C07BF
:100FFC00F9082143EB0804009DE64A461A4375D1D3
:10100C006146394314D1802300241B03BCE64A46B5
:10101C00D51BA9458941624649429B1A5B1A9846E1
:10102C000126AEE54A46D1085A071143DB08A7E66C
:10103C006346F9085A0754461143DB08A0E64A46B2
:10104C0013431D006B1E9D41C7E614001E00203C7F
:10105C00E640202A05D04024A21A93404A461A435F
:10106C0091464D466B1E9D41354378E74A461A43DF
:10107C0000D06BE66B07F9081943EB0880E6614674
:10108C00394354D06346F9085C072143DB0804005C
:10109C0054E64A46BD1AAF42894162464942D31AC8
:1010AC005B1A9846040001266BE54A46D51BA945F8
:1010BC008941624649429A1A521A9046120232D516
:1010CC004A46BD1AAF42894162464942D31A5B1A5D
:1010DC009846040084E56346F9085A071143DB0877
:1010EC004EE6F90868070143EB0824E662463A43EA
:1010FC0000D198E64A46D1085A071143DA088023F2
:10110C001B031A4208D06046C5081D4204D1544640
:10111C002A00F908430719434B0FC9005B07C9089C
:10112C00194313002CE64146294300D0FAE500236D
:10113C000A00002402E66B07F9081943EB08FDE5E9
:10114C006346F9085B07194363460400DB0817E69E
:10115C003D004D4463444D4589419846494288447D
:10116C0043461B0200D4DDE54246144B01261A40CF
:10117C009046D7E510001E002038C640202A05D026
:10118C004020821A93404A461A4391464D466B1EA4
:10119C009D41354321E602000023002140E54A46EB
:1011AC00D519BD4289416344984649428844B3E508
:1011BC000021014A0B0033E5FF070000FFFF7FFF12
:1011CC00F0B557464E464546DE46E0B5814605002D
:1011DC000C03480092461F0085B0240B400DCE0F27
:1011EC00002859D0874B984200D198E06B0FE4004F
:1011FC001C4380231B0423439846834BED009B46E2
:10120C0000239946834400933C037B005046240BF7
:10121C005B0DFF0F002B67D07A4A934218D07A49A6
:10122C00420F8C46E4005946144380226344120456
:10123C00CB1A14439B46C200002033007B409A46D5
:10124C004B460F2B00D9EFE070499B00CB589F46C3
:10125C006F4B52469C462243E344002A00D095E053
:10126C00494602231943894600240220E5E700235E
:10127C000024002552461B052343D20713432800A4
:10128C00190005B0F0BCBB46B246A946A046F0BD5D
:10129C00002400255B4BEDE74B462343984600D1D9
:1012AC0089E0002C00D1E0E1200001F007FB0100F7
:1012BC0002000B391D235B1A49461000D94008382F
:1012CC0084400B004D4623439846854051483C03CF
:1012DC00831A9B460023994600937B005046240BAF
:1012EC005B0DFF0F002B97D15246224355D0002C9B
:1012FC0000D1CAE1200001F0E1FA02000B3A1D23F3
:10130C0001009B1A52460839DA408C40144352466D
:10131C008A40414B58449B46834400208DE74B4602
:10132C002343984640D108239946063B0025834623
:10133C00009369E7B246009B022BA9D0032B00D186
:10134C0011E2012B93D0354A5A44002A00DC3CE1CF
:10135C006B0700D0A7E1ED084346DB0106D54246FA
:10136C002F4B1A4090468022D2005A442D4B9A4261
:10137C008EDC4346520558075C020543240B530D83
:10138C0078E7BA46A04615000090D4E74A460323F6
:10139C001A439146032052464FE74946012319430D
:1013AC0089460024012048E70C239946093BA046B6
:1013BC008346009328E70423994600239B46013378
:1013CC000025009320E7002380249A4600250D4B2E
:1013DC0024034FE7802341461B03194208D01C42CB
:1013EC0006D11C432403BA461500064B240B41E7D7
:1013FC008024434624031C432403B246014B240B94
:10140C0038E7C046FF07000001FCFFFF48AD0008AD
:10141C0001F8FFFF0DFCFFFFF3030000FF030000CA
:10142C00FFFFFFFEFE070000444500D216E100D18D
:10143C0011E101235B429C462E0040460025E3440B
:10144C002302140E1C431B0C994623041F0C12027E
:10145C00494600920197FEF7F1FE02007A430B0415
:10146C00310C804619438A420BD901235B429C46BE
:10147C000919E0448C4204D88A4202D9831E98464A
:10148C000919881A4946FEF7D9FE09048C4631041D
:10149C006646019A090C4243030031438A4204D93F
:1014AC000919013B8C4200D811E1891A4246009E71
:1014BC0012041A43330C1F00100C904602931304B1
:1014CC003204160C32001B0C5A4303967B434643E2
:1014DC007843170CBC469B1963449E4203D9802663
:1014EC007602B44660441E0C301816041B04360CED
:1014FC009E19814200D29CE000D197E0AE1B091AE4
:10150C00B54280414042081A844200D111E149465B
:10151C00FEF794FE019A0B044243310C050019436B
:10152C008A4207D90919013D8C4203D88A4201D954
:10153C00851E0919881A4946FEF780FE09048C4657
:10154C0031046646019A090C4243030031438A4236
:10155C0007D90919013B8C4203D88A4201D9831E51
:10156C000919039E891A32002D041D43029F2B0476
:10157C001B0C5A437B439C46280C4643130CB44427
:10158C00634478439E4203D980267602B446604475
:10159C001E0C12041B04120C30189B18814206D32B
:1015AC0002D001231D43CEE6002B00D1CBE66118FF
:1015BC006E1EA14200D2A4E0814200D2C9E000D14B
:1015CC00D9E03500EDE701256D420121891A382952
:1015DC0000DD4CE61F2900DC7FE01F235B429A1ADA
:1015EC004346D340202904D04446654A5A4494408B
:1015FC0025436A1E954107222B43150000241D40EC
:10160C001A4200D1A1E00F2200241A40042A00D172
:10161C0098E01A1D9A429B415B42E4181300220287
:10162C0000D48FE001230024002523E6B54200D32B
:10163C0064E743465A1E009B9C4665441F009D422E
:10164C009B415B421B19C9188C423AD2884263D821
:10165C0060D0904652E7AA4200D9EAE64346DE073C
:10166C0058086B081E43ED07EAE6484601F026F9D8
:10167C0001000200153120321C2900DC1AE64B4611
:10168C00083883400025984620E601F017F903003E
:10169C001A00153220301C2A00DC30E65446083B78
:1016AC0000229C4035E60F232B40042B00D152E640
:1016BC0005235B42AB429B4104355B42ED089844E9
:1016CC004AE68C42C5D1AF42C0D9904616E78A4251
:1016DC0000D8EAE6831E0919E7E62A4A28005A448C
:1016EC00434695409340C8406A1E95414446034387
:1016FC002B43CC405A0792D00F221A40042A88D18F
:10170C008DE73500814200D04BE7009A934200D020
:10171C0047E718E6AE429CD902235B429C46009BED
:10172C00E0449C4665449D429B415B421B19C91891
:10173C00E4E6154A5A44002A00DC44E7012300255C
:10174C00984409E665076402240BDB081D4300235B
:10175C0090E5009E023D7200B242BF417F423C19AF
:10176C0009190092CEE78024434624031C4324032A
:10177C00064B240B7EE5009A9A42EAD33500C4E767
:10178C003E0400001E040000FF030000FF070000E1
:10179C00F0B54F464646D646944691461A03120B70
:1017AC00184DC0B54C000F0392465A0006008046F7
:1017BC003F0B0120640DC90F520DDB0FAC420AD058
:1017CC00AA4203D0944201D157450DD0E0BCBA4691
:1017DC00B146A846F0BD3D003543F7D1A242F5D144
:1017EC00524665462A43F1D10120C845EED19942B3
:1017FC0006D0002CEAD13E433000461EB041E5E74E
:10180C000020E3E7FF070000F0B54E46454657467B
:10181C00DE4604001800E0B516001B031B0B324D0E
:10182C000F034A0099464300A446B0463F0B520DA5
:10183C00C90F5B0DC00FAA4229D0AB4218D0002AA9
:10184C002AD13C43A34665426541002B02D14C464C
:10185C00264327D0002D15D1814228D002200139F2
:10186C0008400138F0BCBB46B246A946A046F0BDC4
:10187C004D462E432FD1002AEED13C4365426541A3
:10188C00002DE9D00028EDD101204042EAE73D00CF
:10189C00254320D19342EBD0002BDDD14C4626437F
:1018AC00DAD1DBE75B460020002BDBD0D6E79A428F
:1018BC000ADCE7DB4F45D1D810D000204F45D1D200
:1018CC000029E1D00800CDE74342584102234042B1
:1018DC0018400138C6E702204042C3E7C445BDD8D2
:1018EC000020C445BED2EBE7FF070000F0B54E4622
:1018FC0045465746DE4604001800E0B516001B03AB
:10190C001B0B314D0F034A0099464300A446B046C9
:10191C003F0B520DC90F5B0DC00FAA4211D0AB4249
:10192C0014D0002A2FD13C43A34665426541002BBD
:10193C0014D14C46264311D15B460020002B17D006
:10194C0010E03D00254312D193421CD14D462E434D
:10195C000DD1002A04D13C4365426541002D0DD1C7
:10196C00814216D0022001390840013800E00220E3
:10197C00F0BCBB46B246A946A046F0BD0028F7D144
:10198C0001204042F4E7002BEAD14C462643E7D134
:10199C00E8E79A4206DD4342584102234042184090
:1019AC000138E5E79A42E9DB4F45DBD806D0002049
:1019BC004F45DDD20029E3D00800D9E7C445D1D882
:1019CC000020C445D4D2F5E7FF070000F0B5574618
:1019DC004E464546DE46E0B598460C034B000600E5
:1019EC00924687B0240B5B0DCF0F002B6CD0DD4AD9
:1019FC00934200D186E0420FE4001443802212048B
:101A0C001443D94AC5009446634400930023994675
:101A1C009B46434642461E03D20F5B0050469046FF
:101A2C00360B5B0D00D178E0CE4A93421DD0CE49E7
:101A3C00420F8C4600996344F6008C461643802274
:101A4C009C44120463461643C20000200093009984
:101A5C00434601318C4649467B4001930F2900D9FE
:101A6C007EE0C24B890059588F465246009B324348
:101A7C0000D056E1BB4900268C466344494600938E
:101A8C000223194389460220E1E7434601933400BF
:101A9C00150083465B46022B5ED0032B00D1F3E18D
:101AAC00012B00D018E1002200240025019B120517
:101ABC002243DB071A432800110007B0F0BCBB46D9
:101ACC00B246A946A046F0BD2500054300D141E130
:101ADC00002C00D1ADE1200000F0F0FE010002006E
:101AEC000B391D2310005B1A310035000838844077
:101AFC00D94085400C439E48831A00930023994695
:101B0C009B4686E70500254300D01CE10822009384
:101B1C000223002491469B467BE75246324300D178
:101B2C000AE1002E00D176E1300000F0C7FE020081
:101B3C000B3A1D2301009B1A52460839DA408E409D
:101B4C00164352468A40009B8949181A03008C465A
:101B5C006344002000937AE700240025814AA5E71E
:101B6C002F0C2D042D0C2B00110C1204120C5343B2
:101B7C009846130028007B439946484348448346C3
:101B8C0040460B00000C824658467B43504402935F
:101B9C00814506D99A4680235B029946CA4453462E
:101BAC000293030C9B4643461B0400041B0C9846F3
:101BBC00030043440493330C99462B003604360C33
:101BCC007343984633007B439A464B465D435F43D1
:101BDC0043465544180C4019824503D980235B02B7
:101BEC009A465744050CEB19059343461D042D0CDE
:101BFC0000044019250C2404240C270057436A4385
:101C0C0090462A003B0C9A464A4361434144514456
:101C1C008344884503D980235B02984642443F04A1
:101C2C000B0C3F0C0904C919270098464B46774307
:101C3C005C436E435D433B0C9946A4194C444244AF
:101C4C000395A64204D980235B029846454403952C
:101C5C00029B3F045B441E00834280412304984650
:101C6C00059B3F0C4744984676188E428941474461
:101C7C0040423D18A846934649428A46C3449F4277
:101C8C00BF4180458041039BDA449846534640420D
:101C9C007F420743240C934592418A4589413F1961
:101CAC00DC0D049B75021D43681E85415346524250
:101CBC0049420A43BF184744F60D7F0235435A0286
:101CCC003C431543FB0100D4C1E001216A080D40DF
:101CDC001543E2071543640826496144002956DD83
:101CEC006B0709D00F222A40042A05D02A1DAA42CC
:101CFC00AD416D4264191500E30104D580211E4AE3
:101D0C00C900144061441D4A914200DD24E762077A
:101D1C00ED08640249051543240B4A0DC6E60197EC
:101D2C00B8E6104A0320944663444A4600930323C2
:101D3C001A43914652468AE649460123194389467D
:101D4C000026012083E60C22009303230500914614
:101D5C009B465EE60423994600230093013300243E
:101D6C009B4656E6FF07000001FCFFFF88AD00080C
:101D7C000DFCFFFFFF030000FFFFFFFEFE0700004E
:101D8C00002380240025444A019324038EE601207D
:101D9C00401A382800DD86E61F285BDD1F22230051
:101DAC005242511ACB401900202803D03B4A6244BE
:101DBC00944025436A1E95412A000A4307210D00D1
:101DCC000024154011425BD00F210024114004293E
:101DDC0053D0111D914292415242A4180A00230281
:101DEC004BD501220024002560E680231B031C42F6
:101DFC0009D01E4207D133431C0343461500240B64
:101E0C00254A019352E68022120314432403224AEA
:101E1C00240B01974AE600F051FD03001A0015321D
:101E2C0020301C2A00DC84E65646083B00229E40EB
:101E3C0089E600F043FD01000200153120321C2917
:101E4C0000DC4EE6340008380025844053E6009B45
:101E5C009C4641E71249220061442E008D408A4085
:101E6C00C640691E8D4132432A43C4405307B6D045
:101E7C000F2111400429ACD1B1E765076402240B92
:101E8C00D2081543002211E68022120314432403C6
:101E9C00014A240B0AE6C046FF0700003E0400007E
:101EAC001E040000F8B557464E464546DE46040073
:101EBC00E0B51F0010000B03620F4E00CD0F5B0A44
:101ECC0039031343490AE200440F2143C24C9146A3
:101EDC009246C0007A008046760D520DFF0FA2424A
:101EEC0000D1B4E001246740BB46BD4200D188E07C
:101EFC00B41AA446002C00DCB2E0002A00D1C5E0E4
:101F0C00B54A964200D18BE28022120411436246FC
:101F1C00382A00DDA1E11F2A00DD16E220270C0083
:101F2C00BF1ABC400200A0466446B840E24044469A
:101F3C0014430200501E82416046C14022435B1A8A
:101F4C0049468C1AA145924152429B1A98464346E7
:101F5C001B0200D417E143465B025B0A98464346DA
:101F6C00002B00D16CE1404600F0A8FC0200083ABE
:101F7C00202120004346891A9340C84094400343D3
:101F8C00964200DD57E1961B711C1F2900DDCBE149
:101F9C00202218002600521A94409040CE40CB408C
:101FAC00621E94413043984600260443630709D0CF
:101FBC000F232340042B05D0231DA342A4416442CC
:101FCC00A0441C0043461B0200D4DFE0824B0136C8
:101FDC009E4200D1FBE04246804BE4081A401300BD
:101FEC00710552075B0222431B0B490D0905ED07D6
:101FFC00194329431000F0BCBB46B246A946A04683
:10200C00F8BDB41AA446002C58DD002A00D19EE07D
:10201C00714A964200D13BE1802212041143624680
:10202C00382A00DDC1E01F2A00DCBBE10C00203A9D
:10203C00D44022006446202C04D040273F1BB940DA
:10204C00084380464446611E8C411443B1E00C00A9
:10205C0004432AD0BB46BD422DD0614CA446B444A7
:10206C006446002C5CD0941BA446002E00D015E1D5
:10207C004D461D4300D1C3E1651E012C00D10CE27D
:10208C00554EB44200D1F8E1AC460EE10A000243D1
:10209C0000D136E12200013A012C00D1C6E14E4CB0
:1020AC00A44500D1F4E0944631E701246740BB46D7
:1020BC00BD4200D01CE74A4CA446B4446446002CF4
:1020CC0000D1CFE0941BA446002E00D15CE1424E1F
:1020DC00B24200D1ECE18026360433436446382CFE
:1020EC0000DDB3E11F2C00DD38E22026361B1C007E
:1020FC00B4404F46A0466446E74044463C434F46F6
:10210C00B7403E00771EBE4134436646F340C918C3
:10211C00241884429B415B429846160088444EE04A
:10212C00304A741C144200D0D6E04A461A43002EA2
:10213C0000D05BE1002A00D1A5E10A00024300D0E7
:10214C00BBE14A465907D2080A43DB0827E00A00DC
:10215C00024300D174E12200013A012C05D01E4C3F
:10216C00A44500D194E0944659E74844484592412F
:10217C005B189846040052429044434602261B02C8
:10218C0000D5C4E0013E630700D011E74346B446D6
:10219C005907E2080A43DB080F498C4540D06146D9
:1021AC001B0349051B0B490D20E701430C00611E65
:1021BC008C414C444C459241524290469844434683
:1021CC001B02E0D5044B01369E4200D09FE031004B
:1021DC00002300220AE7C046FF070000FFFF7FFF35
:1021EC0001F8FFFFFE070000002A00D160E10A00A1
:1021FC0002434DD04A465C07D20822438024DB08B8
:10220C002403234207D0CE08264204D15D46330076
:10221C00C20849070A43510FD200D20849070A43A2
:10222C001100194300D1C8E1802109030B431B03A2
:10223C00D5491B0BDAE6D549B61A0B409846B5E6DC
:10224C00200000F03BFB020018321F2A00DC8FE656
:10225C00230008388340002492E608430200501EF5
:10226C0082416DE6CA4C721C224200D0ADE04A4657
:10227C001A43002EB8D1002A00D158E10A000243BB
:10228C0000D059E14A465907D2080A43DB0886E7D1
:10229C004A465907D2080A43DB08C1E7BA4DAA429D
:1022AC0000D11EE180252D042B436446382C5DDCC7
:1022BC001F2C00DDD0E0202567462D1B4E461C0050
:1022CC00FE40AC4034434E46AE403500FB406E1EE3
:1022DC00B541C91A2C434EE04A46141AA145924105
:1022EC00524290465F1A3A004746D21B9046120261
:1022FC0000D58BE04246224300D030E60023002577
:10230C004DE74A465907D2080A43DB0844E74246E0
:10231C009E4B61081A401300012214400C43DA074B
:10232C005B089846144341E61A001F3EF240160023
:10233C00202903D04022511A8B401C43621E944129
:10234C0000233443984600261DE70C00203AD44065
:10235C0022006446202C04D040273F1BB940084380
:10236C0080464446611E8C412243E9E54C4623439A
:10237C001C00631E9C41041BA0429B415B42CB1A78
:10238C0098465D461600E2E54E461E4300D1AEE08F
:10239C00661E012C00D1FDE07B4FBC4200D107E151
:1023AC00B4469BE664462022121B0C0094400700A6
:1023BC009040A0466446421E90416246E740444627
:1023CC00D1403C4304435B18F3E66F4CA24200D16E
:1023DC00D5E048445B184845894149425B18DC0705
:1023EC0040085B08984616000443CCE6002A00D04F
:1023FC0082E00A00024340D1802300251B0313E72F
:10240C004B07C2081A435D46CB08C5E64A46841AF8
:10241C00A0429241CB1A52429B1A98465D469EE5C9
:10242C004A465907D2080A43DB08F9E64A46141A09
:10243C00A14592415B1A52429B1A9846012686E5A9
:10244C004A465907D2080A43DB08A5E64C46234303
:10245C001C00631E9C415BE665461E00203DEE4061
:10246C00202C05D040252D1BAB404C461C43A246CE
:10247C005446631E9C4134437DE74B07C2081A4304
:10248C005D46CB08CCE60A00024300D136E74B0789
:10249C00C2081A435D46CB0881E64A46841AA0421C
:1024AC009241CB1A52429B1A98465D4601264EE544
:1024BC004B07C2081A43CB08B2E64A46141AA14588
:1024CC0092415F1A5242BA1A904612026BD54A4692
:1024DC00841AA0429241CB1A52429B1A98465D46EE
:1024EC0064E54B07C2081A435D46CB0898E64B07D8
:1024FC00C2081A43CB084FE60A00024390D04A4662
:10250C005C07D20814438022DB081203134208D064
:10251C00CE08164205D1C0084907084304005D46A1
:10252C003300610FE2004907D2080A4378E64B07F3
:10253C00C2081A43CB0832E648445B18484592411E
:10254C00984652429044434604001B0200D41AE6BB
:10255C0042460E4B01261A40904614E666461F0072
:10256C00203EF740202C05D04026361BB3404C466D
:10257C001C43A2465446631E9C413C43C8E51100D3
:10258C000023002232E5C046FF070000FFFF7FFF5B
:10259C00FE0700004A461418844292415B18984684
:1025AC0052429044E9E54246224300D1A6E6EAE5D0
:1025BC004B07C2081A43CB0832E60022014913002C
:1025CC0014E5C046FF07000070B505000C480C036D
:1025DC00160049001A035B00240B490D120B5B0D0E
:1025EC00814208D0064900208B4203D132431000AF
:1025FC00421E904170BD01202C43FBD1F2E7C04636
:10260C00FF0700000A0030B5134C53000903050006
:10261C00090B00205B0DD20FA34204DD0F4883424F
:10262C0002DD0F4BD01830BD8020400301430D4814
:10263C00C01A1F2808DD0C48C31AD9400B00584299
:10264C00002AF0D11800EEE7084CC540A4466344BC
:10265C0099400B002B43F2E7FE0300001D04000021
:10266C00FFFFFF7F3304000013040000EDFBFFFFAE
:10267C0070B5002816D0C317C5185D40C40F2800CC
:10268C0000F01CF9114A121A0A2816DC03002E005D
:10269C0015339E400B23181AC54053052D032D0BE3
:1026AC005B0D03E000240023002500261B052B43B3
:1026BC00E40723433000190070BD0B3885405305E7
:1026CC002D0300262D0B5B0DF0E7C0461E04000009
:1026DC0010B5041E10D000F0F1F80F4B1B1A0A288D
:1026EC0011DC0B222100121AD14015300A035B05B4
:1026FC008440120B5B0D01E0002300221B051343E9
:10270C002000190010BD22000B3882405B0512031B
:10271C000024120B5B0DF1E71E04000070B54300A2
:10272C004602C40FFE201B0E591C750A08420CD021
:10273C00E022920094466D07360B63441B0533432D
:10274C00E40723432800190070BD002B14D1002D81
:10275C001BD0280000F0B2F80A281CDC0B232A003E
:10276C001B1ADA40030015339D400E4B12031B1A43
:10277C005B05160B5B0DE1E7002D09D0320B8026B3
:10278C003603094B6D071643D8E700230026D5E71F
:10279C000026054BD2E703002A000B3B9A4000258C
:1027AC00E3E7C04689030000FF07000002004B006E
:1027BC00F0B508035B0D3D4ECC0F400A510F5F1C6A
:1027CC000843D50037420AD039495E18FE2E16DD73
:1027DC00FF230021DB050B43E0071843F0BD002B62
:1027EC0006D1284327D005218901490ADBB2F1E73C
:1027FC000543EDD08021C903FF230143EAE7002EF6
:10280C001CDD920111004A1E9141C0006D0F014365
:10281C0029434B0748D00F230B40042B00D0043125
:10282C008023DB040B403FD0721CFE2ED0D08901DC
:10283C00490AD3B2CEE700230021CBE7320017328E
:10284C0022DB80211E2209040843921B1F2A1DDD56
:10285C00022149428E1B0100F1400E00202A04D0B7
:10286C00144A944663449840054329004D1EA941DF
:10287C00314300264B07CED180200B00C00401222F
:10288C0003400142D3D1AFE70023ACE70A498C46A1
:10289C0029006344D1409D400A00290098404D1EF8
:1028AC00A94101431143E4E733009DE7FE07000013
:1028BC0080FCFFFFA2FCFFFF82FCFFFF1C21012319
:1028CC001B04984201D3000C10391B0A984201D307
:1028DC00000A08391B09984201D30009043902A2E5
:1028EC00105C40187047C04604030202010101014C
:1028FC00000000000000000080B582B000AF7860DE
:10290C000A00BB1C1A807B681B681B6800225A6279
:10291C00C0467B681B681B685A6ABB1C1B889A42A2
:10292C00F7D3C046C046BD4602B080BD90B589B055
:10293C0000AF78600C243B19180014231A000021F6
:10294C0005F03CFA7B689B881A0021007B181A6002
:10295C007B1801225A607B180022DA607B18002257
:10296C009A607B689B687A181100180002F022F9B3
:10297C00C046BD4609B090BD90B589B000AF786037
:10298C000C243B19180014231A00002105F016FA28
:10299C007B689B881A003B191A603B1900225A600D
:1029AC003B1901229A607B689B683A191100180048
:1029BC0002F000F9C046BD4609B090BD80B582B0AA
:1029CC0000AF78600A00FB1C1A707B6898687B6803
:1029DC009988FB1C1B781A0002F079FAC046BD4698
:1029EC0002B080BDB0B584B000AF78607B689A68E7
:1029FC007B689B880F257C191900100002F04AFA9D
:102A0C00030023707B191B781800BD4604B0B0BDC1
:102A1C0090B585B000AF78600F243B1900221A7076
:102A2C007B681800FFF782FF7B6800211800FFF716
:102A3C00C5FF142001F038FC7B6801211800FFF75A
:102A4C00BDFF7B681E211800FFF756FF7B6818003E
:102A5C00FFF792FF7B6828211800FFF74DFF7B687A
:102A6C001800FFF7BFFF031E0DD17B685021180023
:102A7C00FFF742FF7B681800FFF7B4FF031E02D07C
:102A8C003B1901221A7001F005FC0200104B1A6070
:102A9C0001F000FC02000F4B1A6004E001F0FAFB9D
:102AAC0002000C4B1A607B681800FFF79BFF031E9B
:102ABC0006D0074B1B689A1C064B1B689A42EDD834
:102ACC000F23FB181B781800BD4605B090BDC046FF
:102ADC00200600201806002080B584B000AF786076
:102AEC000E23FB1800221A706FE001F0D3FB0200DA
:102AFC003C4B1A6001F0CEFB02003B4B1A6004E029
:102B0C0001F0C8FB0200384B1A607B681800FFF715
:102B1C0069FF031E06D1334B1B689A1C324B1B6892
:102B2C009A42EDD87B6828211800FFF7E5FE7B68F8
:102B3C001800FFF757FF031E13D10E23FB181B7849
:102B4C000722D31A01229A4013005BB2DB435BB21B
:102B5C000F217A18127852B213405AB27B181A709D
:102B6C0010E00E23FB181B780722D31A01229A407F
:102B7C0013005AB20F217B181B785BB213435AB265
:102B8C007B181A7001F086FB0200164B1A6001F0DC
:102B9C0081FB0200144B1A6004E001F07BFB020085
:102BAC00114B1A607B681800FFF71CFF031E06D040
:102BBC000C4B1B689A1C0C4B1B689A42EDD80E21CF
:102BCC007B181A787B1801321A700E23FB181B78AD
:102BDC00072B8AD90F23FB181B781800BD4604B0AD
:102BEC0080BDC046200600201806002080B584B0A9
:102BFC0000AFF860B9607A601A00BB1C1A80FB68E1
:102C0C007A689A60FB68BA1C12889A80FB68BA686A
:102C1C001A60C046BD4604B080BD000090B583B0BC
:102C2C0000AF78607B681800FFF7F2FE031E73D0CC
:102C3C007B681800FFF750FF03001A00384B1A701E
:102C4C007B681800FFF748FF03001A00354B1A7019
:102C5C007B681800FFF740FF03001A00324B1A7014
:102C6C007B681800FFF738FF03001A002F4B1A700F
:102C7C007B681800FFF730FF03001A002C4B1A700A
:102C8C00274B1B781A00274B1B78D318264A12782F
:102C9C009B18264A12789B18254A127893423BD1EE
:102CAC00214B1B781800FDF7E5FE041C1F4B1B780D
:102CBC001800FFF7DDFC00221E4BFEF781FA020024
:102CCC000B0010001900FFF771FD031C191C201CD0
:102CDC00FDF7E2FB031C1A1C7B68DA60104B1B78B7
:102CEC001800FDF7C7FE041C0E4B1B781800FFF7ED
:102CFC00BFFC00220F4BFEF763FA02000B00100022
:102D0C001900FFF753FD031C191C201CFDF7C4FB15
:102D1C00031C1A1C7B681A61C046BD4603B090BDEB
:102D2C001C06002024060020260600201406002085
:102D3C00250600200000244090B589B004AF7860CF
:102D4C007868FA239B000293012301930F243B190B
:102D5C00009301237522D02102F0BEFB3B191B7896
:102D6C00682B46D10E217B1800221A707868FA2342
:102D7C009B000293012301930C007B180093012309
:102D8C006B22D02102F07AFA21007B1807221A70EC
:102D9C007868FA239B000293012301930C007B18A3
:102DAC00009301231922D02102F068FA21007B182C
:102DBC0000221A707868FA239B0002930123019376
:102DCC000C007B18009301231C22D02102F056FA30
:102DDC0021007B1800221A707868FA239B0002935A
:102DEC00012301937B18009301231B22D02102F0B5
:102DFC0045FAC046BD4605B090BD000090B589B0FF
:102E0C0004AF786039607868FA239B00029306233C
:102E1C00019308243B19009301233B22D02102F09B
:102E2C005BFB21007B181B781B021AB27B185B78AA
:102E3C001BB213431AB23B681A807B189B781B0297
:102E4C001AB27B18DB781BB213431AB23B685A8058
:102E5C007B181B791B021AB27B185B791BB21343CC
:102E6C001AB23B689A803B6800229B5E1800FFF701
:102E7C00FFFB00221A4BFEF7A3F902000B00100017
:102E8C001900FFF793FC021C3B689A603B68022216
:102E9C009B5E1800FFF7ECFB0022114BFEF790F93C
:102EAC0002000B0010001900FFF780FC021C3B68AD
:102EBC00DA603B6804229B5E1800FFF7D9FB002206
:102ECC00074BFEF77DF902000B0010001900FFF70D
:102EDC006DFC021C3B681A61C046BD4605B090BD36
:102EEC000000D04090B589B004AF78603960786844
:102EFC00FA239B0002930623019308243B190093A9
:102F0C0001234322D02102F0E7FA21007B181B7821
:102F1C001B021AB27B185B781BB213431AB23B68C4
:102F2C009A827B189B781B021AB27B18DB781BB237
:102F3C0013431AB23B68DA827B181B791B021AB254
:102F4C007B185B791BB213431AB23B681A833B683C
:102F5C0014229B5E1800FFF78BFB00221A4BFEF726
:102F6C002FF902000B0010001900FFF71FFC021CC8
:102F7C003B68DA613B6816229B5E1800FFF778FB12
:102F8C000022114BFEF71CF902000B001000190077
:102F9C00FFF70CFC021C3B681A623B6818229B5E14
:102FAC001800FFF765FB0022074BFEF709F902003A
:102FBC000B0010001900FFF7F9FB021C3B685A626A
:102FCC00C046BD4605B090BD0060604090B589B06C
:102FDC0004AF78603960786864230293022301930C
:102FEC000C243B19009301234122D02102F074FAE6
:102FFC002200BB181B781B0219B2BB185B781AB2E3
:10300C000E203B180A431A803B1800229B5E1800C6
:10301C00FDF7EAFC031C0849181CFDF7D9FB031C3F
:10302C000649181CFDF738FA031C1A1C3B689A62F7
:10303C00C046BD4605B090BD0000AA43B81E124262
:10304C0080B500AF01F0CCF800F0ACF800F074FAE9
:10305C0000F010F900F06AF900F0A8F900F0E6F9B8
:10306C0000F03AFA00F002FB444B180003F0F8FCB5
:10307C0080239B01424A41494248FFF7B7FD424B2E
:10308C001800FFF759FE00210F2000F06FFC3F499C
:10309C003F4B0122180000F003FD00F0ABFBFA23BC
:1030AC009B00180001F000F980235B01394A1900DC
:1030BC00100001F029FFC82001F0F6F8314B180080
:1030CC00FFF7ACFD344A304B11001800FFF796FEA9
:1030DC00314A2D4B11001800FFF704FF2E4A2A4BE2
:1030EC0011001800FFF772FF00F000FD00210F2007
:1030FC0000F03CFC234BDB68181CFFF70FFB0200B5
:10310C000B002649264805F0DBFA2049244B012206
:10311C00180000F0C5FC204B9B681A1C0A210020EB
:10312C0000F0A8FD1C4BDB681A1C0A212D2000F0B6
:10313C00A1FD194B1B691A1C0A215A2000F09AFD9B
:10314C00154BDB691A1C1421002000F093FD124B67
:10315C001B6A1A1C14212D2000F08CFD0E4B5B6A8F
:10316C001A1C14215A2000F085FD00F043FBFA23B1
:10317C009B00180001F098F896E7C046D406002092
:10318C0000080048740600202806002000000020DB
:10319C0088AC0008000400485007002098AC0008D8
:1031AC001C07002090B595B000AF20243B191800E7
:1031BC0030231A00002104F001FE1023FB18180024
:1031CC0010231A00002104F0F9FD3B001800102315
:1031DC001A00002104F0F2FD21007B1812221A6063
:1031EC007B180122DA607B1801225A617B181022AD
:1031FC001A617B1810229A617B1802221A627B18C2
:10320C00802212025A627B18802252039A627B1827
:10321C000022DA627B18180002F096FE031E01D021
:10322C0000F01EFA10217B1807221A607B1802226C
:10323C005A607B1800229A607B180022DA607B1897
:10324C000121180003F09EF9031E01D000F008FACA
:10325C003B0020221A603B000022DA603B00180081
:10326C0003F0E0FA031E01D000F0FAF9C046BD46A7
:10327C0015B090BD80B584B000AF3B1D18000C2379
:10328C001A00002104F09AFD264B274A1A60254BA0
:10329C0000225A60234B00229A60224B0022DA60F3
:1032AC00204B01221A611F4B04225A611D4B002234
:1032BC001A761C4B00225A761A4B01229A76194B1D
:1032CC000022DA76174BC222FF32DA61154B00224C
:1032DC001A62144B242200219954124B01229A6237
:1032EC00104B180001F004F8031E01D000F0B8F9DF
:1032FC003B1D00221A603B1D802252015A603B1D6F
:10330C00802252059A603A1D064B1100180001F0FC
:10331C00FFF9031E01D000F0A3F9C046BD4604B06E
:10332C0080BDC046000800200024014080B500AFDD
:10333C001B4B1C4A1A601A4B1B4A5A60184B002232
:10334C009A60174B0122DA60154B00221A61144B5C
:10335C0000225A61124B00229A61114B0022DA6151
:10336C000F4B00221A620E4B180001F0E9FD031EF0
:10337C0001D000F075F90A4B0021180002F04CFD49
:10338C00031E01D000F06CF9054B0021180002F06F
:10339C008FFD031E01D000F063F9C046BD4680BD11
:1033AC0028060020005400400B02000080B500AF3E
:1033BC001B4B1C4A1A601A4B1B4A5A60184B0022B2
:1033CC009A60174B0122DA60154B00221A61144BDC
:1033DC0000225A61124B00229A61114B0022DA61D1
:1033EC000F4B00221A620E4B180001F0A9FD031EB0
:1033FC0001D000F035F90A4B0021180002F00CFD49
:10340C00031E01D000F02CF9054B0021180002F02E
:10341C004FFD031E01D000F023F9C046BD4680BD10
:10342C0088060020005800401A09102080B586B08C
:10343C0000AF0823FB18180010231A00002104F019
:10344C00BDFC3B00180008231A00002104F0B6FC58
:10345C001E4B1F4A1A601D4B2F225A601B4B002219
:10346C009A601A4B1B4ADA60184B00221A61174BF0
:10347C0000229A61154B180003F0A2FA031E01D02A
:10348C0000F0EEF808217B18802252011A607A189D
:10349C000E4B1100180003F027FB031E01D000F0A7
:1034AC00DFF83B0000221A603B0000225A603A0011
:1034BC00064B1100180003F0FBFC031E01D000F0BA
:1034CC00CFF8C046BD4606B080BDC046D40600202D
:1034DC0000040040FEFF000080B500AF144B154AFD
:1034EC001A60134BE12252025A60114B00229A606F
:1034FC000F4B0022DA600E4B00221A610C4B0C228F
:10350C005A610B4B00229A61094B0022DA61084B7D
:10351C0000221A62064B00225A62054B180003F077
:10352C001FFD031E01D000F09BF8C046BD4680BDB8
:10353C007C0700200044004090B58BB000AF1424F1
:10354C003B19180014231A00002104F037FC414BDE
:10355C005A69404B802109030A435A613D4B5A6911
:10356C0080231B0313403B613B693A4B5A69394B2F
:10357C008021C9030A435A61364B5A698023DB0305
:10358C001340FB60FB68334B5A69324B8021890234
:10359C000A435A612F4B5A6980239B021340BB602C
:1035AC00BB682C4B5A692B4B8021C9020A435A61C8
:1035BC00284B5A698023DB0213407B607B68802395
:1035CC009B0125480022190001F081FC80235B013E
:1035DC0022480122190001F07AFC3B198022920149
:1035EC001A603B1901225A603B1900229A603B1960
:1035FC000022DA603B19184A1900100001F0DAFABF
:10360C003B1910221A603B19842292035A603B1911
:10361C0001229A603A199023DB051100180001F081
:10362C00C9FA21007B18802252011A607B180122F2
:10363C005A607B1800229A607B180322DA607B1890
:10364C00064A1900100001F0B5FAC046BD460BB091
:10365C0090BDC0460010024000080048000400481D
:10366C0080B500AF72B6C046FEE7000080B582B0F0
:10367C0000AF00F045FA5B4B5B480122782102F069
:10368C005FF8031E01D00023A8E0584B7B6002E0DA
:10369C007B68013B7B607B68002BF9D1AE2200215B
:1036AC00782000F0BFFA20220021782000F0BAFA2E
:1036BC0010220021782000F0B5FAB02200217820E9
:1036CC0000F0B0FAC8220021782000F0ABFA0022FA
:1036DC000021782000F0A6FA10220021782000F0BA
:1036EC00A1FA40220021782000F09CFA81220021CE
:1036FC00782000F097FAFF220021782000F092FA4F
:10370C00A1220021782000F08DFAA6220021782039
:10371C0000F088FAA8220021782000F083FA3F22DA
:10372C000021782000F07EFAA4220021782000F0FD
:10373C0079FAD3220021782000F074FA00220021BB
:10374C00782000F06FFAD5220021782000F06AFA78
:10375C00F0220021782000F065FAD922002178208F
:10376C0000F060FA22220021782000F05BFADA22C5
:10377C000021782000F056FA12220021782000F067
:10378C0051FADB220021782000F04CFA2022002193
:10379C00782000F047FA8D220021782000F042FAC0
:1037AC0014220021782000F03DFAAF22002178206D
:1037BC0000F038FA2E220021782000F033FA002095
:1037CC0000F04CF800F016F8094B00221A80084B58
:1037DC0000225A80064B01225A7101231800BD4663
:1037EC0002B080BD204E000088060020C4090000F5
:1037FC000006002080B582B000AFFB1D00221A70BD
:10380C0021E0FB1D1B78503BDBB21A000021782015
:10381C0000F008FA00220021782000F003FA1022B0
:10382C000021782000F0FEF9FB1D1B78DA010A4B11
:10383C00D21880234021782000F076F9FB1D1A78ED
:10384C00FB1D01321A70FB1D1B78072BD9D9C04602
:10385C00C046BD4602B080BD0002002080B582B0DB
:10386C0000AF0200FB1D1A70FB1D1B78002B01D151
:10387C00002300E0FF238022D2000448190004F04A
:10388C009DFAC046BD4602B080BDC0460002002075
:10389C0090B583B000AF040008001100BB1D221CC2
:1038AC001A803B1D021C1A80FB1C0A1C1A70BB1DC3
:1038BC001B887F2B52D83B1D1B883F2B4ED8294B86
:1038CC001B79002B06D0FB1C1B785A425341DAB2F1
:1038DC00FB1C1A70FB1C1B78012B1ED1BB1D1A88FC
:1038EC003B1D1B88DB0898B20300DB01D3181E4A72
:1038FC00D35C5AB23B1D1B8807210B400121994018
:10390C000B005BB2134359B2BB1D1A880300DB01D9
:10391C00D318C9B2144AD15421E0BB1D1A883B1DDF
:10392C001B88DB0898B20300DB01D3180E4AD35C6A
:10393C005BB23A1D128807210A40012191400A000E
:10394C0052B2D24352B2134059B2BB1D1A88030073
:10395C00DB01D318C9B2044AD15400E0C046BD46BD
:10396C0003B090BD000600200002002080B582B09C
:10397C0000AF0200BB1D1A803B1D0A1C1A80064BAF
:10398C00BA1D12881A80044B3A1D12885A80C04600
:10399C00BD4602B080BDC0460006002080B586B092
:1039AC0000AF39601100FB1D021C1A70BB1D0A1CF4
:1039BC001A703A4B1B881A003B681B78D3187F2B64
:1039CC0007DC364B5B881A003B685B78D3183F2BBF
:1039DC0001DD00235EE000237B614AE03B685A680E
:1039EC00FB1D1B78203B396849784B4319007B69D8
:1039FC00CB185B00D3181B88FB6000233B612FE0C6
:103A0C00FA683B699A4080231B02134011D0234B68
:103A1C001A883B699BB2D31898B2204B5A887B69A1
:103A2C009BB2D31899B2BB1D1B781A00FFF730FF5D
:103A3C0013E01A4B1A883B699BB2D31898B2174BF8
:103A4C005A887B699BB2D31899B2BB1D1B785A421A
:103A5C005341DBB21A00FFF71BFF3B6901333B619B
:103A6C003B681B781A003B699342C9D37B690133CD
:103A7C007B613B685B781A007B699342AED3074B42
:103A8C001A883B681B789BB2D3189AB2034B1A80E6
:103A9C00FB1D1B781800BD4606B080BD000600203B
:103AAC0080B584B000AFF860B960FB1D1A7013E0EC
:103ABC00FB681878FB1D1A78BB681900FFF76EFFBE
:103ACC0003001A00FB681B789A4202D0FB681B7833
:103ADC0008E0FB680133FB60FB681B78002BE7D127
:103AEC00FB681B781800BD4604B080BD80B500AFE4
:103AFC000020FFF7B3FEFFF77DFEC046BD4680BD3C
:103B0C0080B582B000AF074B7B6002E07B68013B65
:103B1C007B607B68002BF9D1C046C046BD4602B025
:103B2C0080BDC04690D0030090B5C7B002AF040072
:103B3C0008003A601900364B882252009446BC4467
:103B4C006344221C1A70334B882252009446BC44A6
:103B5C006344021C1A70304B882252009446BC44B9
:103B6C0063440A1C1A802D4B882252009446BC4494
:103B7C006344284A882149008C46BC44624412782C
:103B8C001A701023FF33FB1800221A7015E0102056
:103B9C00FF303B181B783A68D2183B181B7801335E
:103BAC0011781E4A88246400A446BC446244D15453
:103BBC003B181A783B1801321A701023FF33FB188C
:103BCC001B789BB2144A882149008C46BC44624441
:103BDC0012889A42DBD80E4B882252009446BC4481
:103BEC0063441B7899B20C4B882252009446BC4417
:103BFC0063441B8801339BB20C22BA1808480A2470
:103C0C00009401F033FAC046BD4645B090BDC046A5
:103C1C00F7FEFFFFF6FEFFFFF4FEFFFFFCFEFFFFCB
:103C2C008806002090B587B002AF04000800110090
:103C3C00FB1D221C1A70BB1D021C1A707B1D0A1C5A
:103C4C001A700C203B18BA1D12781A703B187A1D8A
:103C5C0012785A70FB1D1B7899B23A1804480A2343
:103C6C000093022301F002FAC046BD4605B090BD98
:103C7C008806002090B591B000AF3A60BB1D021CC5
:103C8C001A803B1D0A1C1A803B1D1A88BB1D1B8801
:103C9C0011001800FFF76AFE3868FEF73FFD0200BE
:103CAC000B0007490C24381904F00AFD05493B198F
:103CBC0001221800FFF7F4FEC046BD4611B090BDBE
:103CCC00A0AC00080000002080B582B000AF0F4B04
:103CDC009A690E4B01210A439A610C4B9B69012294
:103CEC0013407B607B68094BDA69084B80214905DE
:103CFC000A43DA61054BDA6980235B0513403B60AC
:103D0C003B68C046BD4602B080BDC04600100240B4
:103D1C0090B58BB000AF786014243B1918001423B5
:103D2C001A00002104F04AF87B681B681D4A934274
:103D3C0033D11D4B9A691C4B802189000A439A612F
:103D4C00194B9A6980239B0013403B613B69164BCE
:103D5C005A69154B802189020A435A61124B5A69E0
:103D6C0080239B021340FB60FB683B1901221A6005
:103D7C003B1903225A603B1900229A603A1990238E
:103D8C00DB051100180000F015FF002200210C20AB
:103D9C0000F060FE0C2000F072FEC046BD460BB079
:103DAC0090BDC046002401400010024090B58DB07B
:103DBC0000AF78601C243B19180014231A00002152
:103DCC0003F0FCFF7B681B68394A934234D1394BB2
:103DDC005A69384B802189020A435A61354B5A691A
:103DEC0080239B021340BB61BB693B19C022D200EC
:103DFC001A6021007B1812225A607B1800229A60EC
:103E0C007B180322DA607B1804221A617A1890233B
:103E1C00DB051100180000F0CDFE264BDA69254BAE
:103E2C00802189030A43DA61224BDA6980239B03E0
:103E3C0013407B617B6937E07B681B681E4A9342A9
:103E4C0032D11C4B5A691B4B8021C9020A435A615F
:103E5C00184B5A698023DB0213403B613B691C21E0
:103E6C007B18C02212011A607B1812225A607B1830
:103E7C0000229A607B180322DA607B1801221A61F7
:103E8C007B180E4A1900100000F094FE094BDA69F9
:103E9C00084B8021C9030A43DA61064BDA69802397
:103EAC00DB031340FB60FB68C046BD460DB090BD04
:103EBC00005400400010024000580040000400482C
:103ECC0080B584B000AF78607B681B68094A934268
:103EDC000BD1094BDA69084B02210A43DA61064B14
:103EEC00DB6902221340FB60FB68C046BD4604B090
:103EFC0080BDC046000400400010024090B58BB05D
:103F0C0000AF786014243B19180014231A00002108
:103F1C0003F054FF7B681B68204A93423AD1204B34
:103F2C00DA691F4B802189020A43DA611C4BDA697A
:103F3C0080239B0213403B613B69194B5A69184B18
:103F4C00802189020A435A61154B5A6980239B02CE
:103F5C001340FB60FB6821007B180C221A607B1855
:103F6C0002225A607B1800229A607B180322DA60C6
:103F7C007B1801221A617A189023DB0511001800B6
:103F8C0000F018FE002200211C2000F063FD1C2014
:103F9C0000F075FDC046BD460BB090BD004400401E
:103FAC000010024080B500AFFEE780B500AFFEE721
:103FBC0080B500AFC046BD4680BD80B500AFC046E1
:103FCC00BD4680BD80B500AF00F052F9C046BD467D
:103FDC0080BD000080B500AF034B180000F0C8FA9C
:103FEC00C046BD4680BDC0460008002080B500AF6D
:103FFC00034B180003F008F8C046BD4680BDC04610
:10400C007C07002080B500AF01231800BD4680BDA1
:10401C0080B582B000AF7860396003F0A5FE030074
:10402C0016221A6001235B421800BD4602B080BD07
:10403C0080B582B000AF786001235A427B681100D2
:10404C001800FFF7E5FFFEE780B586B000AFF8601B
:10405C00B9607A6000237B610AE000E000BF0100D8
:10406C00BB685A1CBA60CAB21A707B6901337B6197
:10407C007A697B689A42F0DB7B681800BD4606B013
:10408C0080BD80B586B000AFF860B9607A6000235F
:10409C007B6109E0BB685A1CBA601B78180000E011
:1040AC0000BF7B6901337B617A697B689A42F1DBE3
:1040BC007B681800BD4606B080BD80B582B000AFED
:1040CC00786001235B421800BD4602B080BD80B50C
:1040DC0082B000AF786039603B68802292015A60F0
:1040EC0000231800BD4602B080BD80B582B000AF81
:1040FC00786001231800BD4602B080BD80B584B045
:10410C0000AFF860B9607A6000231800BD4604B0B7
:10411C0080BD000080B586B000AF7860144A154BA6
:10412C00D31A7B617B693B61134B1B68002B02D15B
:10413C00114B124A1A60104B1A687B68D3183A69F3
:10414C009A4207D203F010FE03000C221A600123DE
:10415C005B4209E0084B1B68FB60074B1A687B68E5
:10416C00D218054B1A60FB681800BD4606B080BD1E
:10417C0000800020000400000806002058080020E1
:10418C0080B500AFC046BD4680BD00000D488546D9
:10419C000D480E490E4A002302E0D458C450043393
:1041AC00C4188C42F9D30B4A0B4C002301E013606A
:1041BC000432A242FBD3FFF7E3FF03F0DBFDFEF773
:1041CC003FFFFEE70080002000000020E4010020FB
:1041DC0034B90008E401002054080020FEE7000078
:1041EC0080B500AF074B1A68064B10210A431A60C2
:1041FC00032000F009F8FFF767FD00231800BD4607
:10420C0080BDC0460020024090B583B000AF7860FE
:10421C00144B1C68144B1B781900FA239800FBF7FD
:10422C0087FF030019002000FBF782FF0300180032
:10423C0000F035FC031E01D001230FE07B68032B3B
:10424C000BD8796801235B420022180000F002FCB5
:10425C00064B7A681A60002300E001231800BD4663
:10426C0003B090BD08000020100000200C000020BE
:10427C0080B500AF054B1B781A00054B1B68D21894
:10428C00034B1A60C046BD4680BDC04610000020DE
:10429C004008002080B500AF024B1B681800BD46DB
:1042AC0080BDC0464008002080B584B000AF786067
:1042BC00FFF7F0FF0300BB607B68FB60FB6801331A
:1042CC0005D00A4B1B781A00FB689B18FB60C04694
:1042DC00FFF7E0FF0200BB68D31AFA689A42F7D8DE
:1042EC00C046C046BD4604B080BDC046100000208C
:1042FC0080B584B000AF78600F23FB1800221A70D1
:10430C000023BB607B68002B01D1012325E17B6876
:10431C009B6B002B0AD17B680022DA637B6834220A
:10432C00002199547B681800FFF7F2FC7B689B6BAB
:10433C001022134000D003E10F23FB181B78002B35
:10434C0000D0FDE07B681B689B680422134000D002
:10435C00F6E07B689B6B834A134002221A437B680E
:10436C009A637B681B689B6803221340012B12D154
:10437C007B681B681B6801221340012B09D07B68EA
:10438C001B68DA6880231B021A4080231B029A42A6
:10439C0001D1012300E00023002B16D17B681B68A0
:1043AC00DB681822934319007B689A687B681B684A
:1043BC000A43DA607B681B681B699B0099087B6861
:1043CC005A687B681B680A431A617B681B68DA6849
:1043DC007B681B6864490A40DA607B681B7E9A0321
:1043EC007B685B7EDB031A437B689B7E5B031A4313
:1043FC007B689B6A012B02D080235B0100E00023C9
:10440C001A437B68DB681A437B681B69022B01D15A
:10441C00042300E000231A437B6824215B5C5B00CF
:10442C001343BA681343BB607B68DB7E012B15D149
:10443C007B689B7E002B05D1BB6880225202134304
:10444C00BB600BE07B689B6B20221A437B689A63F2
:10445C007B68DB6B01221A437B68DA637B68DA6961
:10446C00C223FF339A4207D07B68DA697B681B6AE8
:10447C001343BA681343BB607B681B68D9687B68BD
:10448C001B68BA680A43DA607B68DA6A80235B05CA
:10449C009A421BD07B68DB6A012B17D07B68DB6AE6
:1044AC00022B13D07B68DB6A032B0FD07B68DB6A93
:1044BC00042B0BD07B68DB6A052B07D07B68DB6A8F
:1044CC00062B03D07B68DB6A072B12D17B681B6839
:1044DC005A697B681B6807218A435A617B681B6891
:1044EC0059697B68DB6A07221A407B681B680A43A0
:1044FC005A617B681B68DB681C4A1340BA689A4295
:10450C000BD17B680022DA637B689B6B032293439D
:10451C0001221A437B689A631CE07B689B6B122216
:10452C00934310221A437B689A637B68DB6B0122EE
:10453C001A437B68DA630F23FB1801221A7009E017
:10454C007B689B6B10221A437B689A630F23FB18C2
:10455C0001221A700F23FB181B781800BD4604B0FB
:10456C0080BDC046FDFEFFFF1902FEFFE7FF3F8343
:10457C0080B582B000AF78607B681B681B68042232
:10458C001340042B06D17B681B685B680422134024
:10459C00042B0DD07B681B681B6808221340082B6A
:1045AC004FD17B681B685B6808221340082B48D1ED
:1045BC007B689B6B1022134006D17B689B6B80221F
:1045CC0092001A437B689A637B681B68DA68C02385
:1045DC001B0113402DD17B689B7E002B29D17B685E
:1045EC001B681B6808221340082B22D17B681B68B0
:1045FC009B680422134010D17B681B685A687B6847
:10460C001B680C218A435A607B689B6B334A1340AE
:10461C0001221A437B689A630BE07B689B6B202218
:10462C001A437B689A637B68DB6B01221A437B68B5
:10463C00DA637B68180000F053F87B681B680C2267
:10464C001A607B681B681B6880221340802B15D175
:10465C007B681B685B6880221340802B0ED17B68C3
:10466C009B6B802252021A437B689A637B6818000A
:10467C0000F03EF87B681B6880221A607B681B6820
:10468C001B6810221340102B23D17B681B685B68BE
:10469C0010221340102B1CD17B689B6A012B06D077
:1046AC007B681B68DB6801221340012B0DD17B68F2
:1046BC00DB6B02221A437B68DA637B681B6810226F
:1046CC001A607B68180000F01BF87B681B681022CE
:1046DC001A60C046BD4602B080BDC046FEFEFFFF5C
:1046EC0080B582B000AF7860C046BD4602B080BDD8
:1046FC0080B582B000AF7860C046BD4602B080BDC8
:10470C0080B582B000AF7860C046BD4602B080BDB7
:10471C0080B584B000AF786039600F23FB1800229D
:10472C001A700023BB607B68DA6A80235B059A42AF
:10473C0011D07B68DB6A012B0DD07B68DB6A022B06
:10474C0009D07B68DB6A032B05D07B68DB6A042B02
:10475C0001D07B68DB6A7B6834229B5C012B01D126
:10476C000223BBE07B683422012199547B681B68CF
:10477C009B680422134000D09FE03B685B68594A59
:10478C00934200D177E07B681B68996A3B681B6891
:10479C0001229A407B681B680A439A627B68DA6A3A
:1047AC0080235B059A4237D07B68DB6A012B33D0C0
:1047BC007B68DB6A022B2FD07B68DB6A032B2BD048
:1047CC007B68DB6A042B27D07B68DB6A052B23D044
:1047DC007B68DB6A062B1FD07B68DB6A072B1BD040
:1047EC003B689A687B681B685B6907210B409A429F
:1047FC0012D07B681B685A697B681B6807218A4347
:10480C005A617B681B6859693B689B6807221A4090
:10481C007B681B680A435A613B681B68102B03D0EA
:10482C003B681B68112B52D12F4B19683B681B68D6
:10483C00102B02D180231B0401E08023DB032A4AC6
:10484C000B4313603B681B68102B40D1274B1B6834
:10485C0027491800FBF76CFC03001A0013009B009F
:10486C009B185B00BB6002E0BB68013BBB60BB6894
:10487C00002BF9D12BE07B681B689A6A3B681B689C
:10488C00012199400B00D9437B681B680A409A624E
:10489C003B681B68102B03D03B681B68112B16D18F
:1048AC00114B19683B681B68102B01D1114A00E0B1
:1048BC00114A0D4B0A401A6009E07B689B6B202261
:1048CC001A437B689A630F23FB1801221A707B68CA
:1048DC003422002199540F23FB181B781800BD4675
:1048EC0004B080BD01100000082701400800002022
:1048FC0040420F00FFFF7FFFFFFFBFFF80B582B07C
:10490C0000AF0200FB1D1A70FB1D1B787F2B09D812
:10491C00FB1D1B781A001F231A40044B01219140E8
:10492C000A001A60C046BD4602B080BD00E100E03E
:10493C0090B583B000AF02003960FB1D1A70FB1DEF
:10494C001B787F2B28D82F4AFB1D1B785BB29B084A
:10495C00C0339B009B58FA1D1278110003220A40A9
:10496C00D200FF2191400A00D2431A4011003B684B
:10497C009B01FF221A40FB1D1B78180003230340E8
:10498C00DB009A401F48FB1D1B785BB29B080A4357
:10499C00C0339B001A5031E01B4AFB1D1B781900D9
:1049AC000F230B40083B9B0806339B00D3180433A2
:1049BC001B68FA1D1278110003220A40D200FF2155
:1049CC0091400A00D2431A4011003B689B01FF2220
:1049DC001A40FB1D1B78180003230340DB009A4090
:1049EC000948FB1D1B781C000F232340083B9B0828
:1049FC000A4306339B00C31804331A60C046BD46F5
:104A0C0003B090BD00E100E000ED00E080B582B0A5
:104A1C0000AF78607B685A1E80235B049A4201D3F6
:104A2C00012310E00A4B7A68013A5A6001235B4279
:104A3C0003211800FFF77CFF054B00229A60044B02
:104A4C0007221A6000231800BD4602B080BDC04684
:104A5C0010E000E080B584B000AFB9607A600F213F
:104A6C007B18021C1A70BA687B181B785BB2110099
:104A7C001800FFF75DFFC046BD4604B080BD80B591
:104A8C0082B000AF0200FB1D1A70FB1D1B785BB2DD
:104A9C001800FFF733FFC046BD4602B080BD80B59D
:104AAC0082B000AF78607B681800FFF7AFFF03009F
:104ABC001800BD4602B080BD80B582B000AF7860F2
:104ACC007B6821229B5CDBB2022B08D07B68042222
:104ADC009A637B68202200219954012320E07B6893
:104AEC001B681A687B681B680E218A431A607B68F6
:104AFC001B681A687B681B6801218A431A607B68F3
:104B0C001A6C7B68DB6B012191400A005A607B6850
:104B1C002122012199547B682022002199540023E1
:104B2C001800BD4602B080BD80B584B000AF78607F
:104B3C000F217B1800221A707B6821229B5CDBB250
:104B4C00022B06D07B6804229A637B1801221A7010
:104B5C0028E07B681B681A687B681B680E218A43F7
:104B6C001A607B681B681A687B681B6801218A4382
:104B7C001A607B681A6C7B68DB6B012191400A0020
:104B8C005A607B682122012199547B6820220021E4
:104B9C0099547B685B6B002B04D07B685B6B7A68E9
:104BAC00100098470F23FB181B781800BD4604B063
:104BBC0080BD000080B586B000AF786039600023FE
:104BCC007B614FE13B681B6801217A6991400A00C7
:104BDC001340FB60FB68002B00D140E13B685B6835
:104BEC0003221340012B05D03B685B680322134062
:104BFC00022B30D17B689B683B617B695B00032295
:104C0C009A401300DA433B6913403B613B68DA6816
:104C1C007B695B009A4013003A6913433B617B68E4
:104C2C003A699A607B685B683B6101227B699A40B8
:104C3C001300DA433B6913403B613B685B681B091B
:104C4C0001221A407B699A4013003A6913433B6175
:104C5C007B683A695A603B685B6803221340032BFC
:104C6C0017D07B68DB683B617B695B0003229A4051
:104C7C001300DA433B6913403B613B689A687B69DC
:104C8C005B009A4013003A6913433B617B683A69B5
:104C9C00DA603B685B6803221340022B23D17B69EB
:104CAC00DA087B6808329200D3583B617B69072293
:104CBC0013409B000F229A401300DA433B691340C8
:104CCC003B613B681A697B6907210B409B009A404A
:104CDC0013003A6913433B617B69DA087B6808323D
:104CEC0092003969D1507B681B683B617B695B0022
:104CFC0003229A401300DA433B6913403B613B6843
:104D0C005B6803221A407B695B009A4013003A6986
:104D1C0013433B617B683A691A603B685A68C0234D
:104D2C009B02134000D19AE0544B9A69534B0121DA
:104D3C000A439A61514B9B6901221340BB60BB68CB
:104D4C004F4A7B699B0802339B009B583B617B69F4
:104D5C00032213409B000F229A401300DA433B6955
:104D6C0013403B617A689023DB059A4213D07B6831
:104D7C00444A93420DD07B68434A934207D07B68E8
:104D8C00424A934201D1032306E0052304E00223A7
:104D9C0002E0012300E000237A6903210A4092001B
:104DAC0093403A6913433B6135497B699B08023355
:104DBC009B003A695A50364B1B683B61FB68DA43DF
:104DCC003B6913403B613B685A6880235B0213408C
:104DDC0003D03A69FB6813433B612D4B3A691A6067
:104DEC002B4B5B683B61FB68DA433B6913403B61CF
:104DFC003B685A6880239B02134003D03A69FB68D6
:104E0C0013433B61224B3A695A60214B9B683B61CF
:104E1C00FB68DA433B6913403B613B685A6880236B
:104E2C005B03134003D03A69FB6813433B61184B97
:104E3C003A699A60164BDB683B61FB68DA433B6965
:104E4C0013403B613B685A6880239B03134003D09B
:104E5C003A69FB6813433B610D4B3A69DA607B6935
:104E6C0001337B613B681A687B69DA40131E00D002
:104E7C00A8E6C046C046BD4606B080BD0010024044
:104E8C00000001400004004800080048000C0048E5
:104E9C000004014080B584B000AF78600A00BB1CF0
:104EAC001A807B681B69BA1C1288134004D00F232C
:104EBC00FB1801221A7003E00F23FB1800221A7052
:104ECC000F23FB181B781800BD4604B080BD80B5BD
:104EDC0082B000AF786008001100BB1C021C1A8065
:104EEC007B1C0A1C1A707B1C1B78002B04D0BB1C6F
:104EFC001A887B689A6103E0BB1C1A887B689A62EB
:104F0C00C046BD4602B080BD80B584B000AF7860AD
:104F1C000A00BB1C1A807B685B69FB60BB1C1B888E
:104F2C00FA6813401A04FB68DB43B91C09880B4070
:104F3C001A437B689A61C046BD4604B080BD000030
:104F4C0080B582B000AF78607B68002B01D1012363
:104F5C0082E07B6841229B5CDBB2002B07D17B6833
:104F6C004022002199547B681800FEF71FFF7B68D4
:104F7C004122242199547B681B681A687B681B6842
:104F8C0001218A431A607B685A687B681B68344924
:104F9C000A401A617B681B689A687B681B683149F8
:104FAC000A409A607B68DB68012B08D17B689A68A1
:104FBC007B681B68802109020A439A6007E07B68C2
:104FCC009A687B681B68842109020A439A607B6893
:104FDC00DB68022B04D17B681B68802212015A60AB
:104FEC007B681B685A687B681B681F490A435A60B8
:104FFC007B681B68DA687B681B681A490A40DA60B0
:10500C007B681A697B685B691A4311007B689B6932
:10501C001A027B681B680A43DA607B68D9697B6873
:10502C001A6A7B681B680A431A607B681B681A68DB
:10503C007B681B6801210A431A607B6800225A6452
:10504C007B684122202199547B6800221A637B687B
:10505C0042220021995400231800BD4602B080BDA5
:10506C00FFFFFFF0FF7FFFFF0080000290B589B0CB
:10507C0002AFF86008007A6019000A23FB18021CC2
:10508C001A800823FB180A1C1A80FB6841229B5CBF
:10509C00DBB2202B00D0E7E0FB6840229B5C012BAD
:1050AC0001D10223E1E0FB68402201219954FFF772
:1050BC00F1F803007B6180231902F8687B69009387
:1050CC001923012200F03EFD031E01D00123CCE088
:1050DC00FB68412221219954FB68422210219954EA
:1050EC00FB6800225A64FB687A685A62FB680822E3
:1050FC00BA1812885A85FB6800225A63FB685B8DCC
:10510C009BB2FF2B11D9FB68FF221A85FB681B8D04
:10511C00DAB280235C040A23FB181988F868554B13
:10512C000093230000F042FE75E0FB685B8D9AB2A1
:10513C00FB681A85FB681B8DDAB280239C040A235A
:10514C00FB181988F8684B4B0093230000F02EFED7
:10515C0061E07A69B96AFB68180000F032FD031E41
:10516C0001D0012381E0FB685B6A1A78FB681B683D
:10517C009A62FB685B6A5A1CFB685A62FB685B8D1F
:10518C009BB2013B9AB2FB685A85FB681B8D013BB5
:10519C009AB2FB681A85FB685B8D9BB2002B3AD0E8
:1051AC00FB681B8D002B36D1BA6AF8687B690093BB
:1051BC0013000022802100F0C5FC031E01D0012346
:1051CC0053E0FB685B8D9BB2FF2B11D9FB68FF2270
:1051DC001A85FB681B8DDAB280235C040A23FB184A
:1051EC001988F86800230093230000F0DFFD12E01B
:1051FC00FB685B8D9AB2FB681A85FB681B8DDAB273
:10520C0080239C040A23FB181988F8680023009358
:10521C00230000F0CBFDFB685B8D9BB2002B98D17B
:10522C007A69B96AFB68180000F00AFD031E01D008
:10523C0001231AE0FB681B682022DA61FB681B68FB
:10524C005A68FB681B680C490A405A60FB6841228B
:10525C0020219954FB68422200219954FB6840227A
:10526C0000219954002300E002231800BD4607B02A
:10527C0090BDC0460020008000E800FE90B589B0CB
:10528C0002AFF8600C00100019000A23FB18221C56
:10529C001A800823FB18021C1A80BB1D0A1C1A80DA
:1052AC00FB6841229B5CDBB2202B00D00CE1BB6A7B
:1052BC00002B04D02C23FB181B88002B05D1FB687A
:1052CC00802292005A640123FFE0FB6840229B5C21
:1052DC00012B01D10223F8E0FB68402201219954F3
:1052EC00FEF7D8FF03007B6180231902F8687B6905
:1052FC0000931923012200F025FC031E01D0012389
:10530C00E3E0FB68412221219954FB6842224021B1
:10531C009954FB6800225A64FB68BA6A5A62FB68AB
:10532C002C22BA1812885A85FB6800225A63BB1DBE
:10533C001C880823FB181A880A23FB181988F8689C
:10534C007B6901933B6B0093230000F013FB031E5E
:10535C0005D0FB684022002199540123B5E0FB687D
:10536C005B8D9BB2FF2B11D9FB68FF221A85FB6862
:10537C001B8DDAB280235C040A23FB181988F868A9
:10538C0000230093230000F011FD12E0FB685B8DFD
:10539C009AB2FB681A85FB681B8DDAB280239C04D9
:1053AC000A23FB181988F86800230093230000F0E7
:1053BC00FDFC7A69396BFB68180000F002FC031ED7
:1053CC0001D0012381E0FB685B6A1A78FB681B68DB
:1053DC009A62FB685B6A5A1CFB685A62FB685B8DBD
:1053EC009BB2013B9AB2FB685A85FB681B8D013B53
:1053FC009AB2FB681A85FB685B8D9BB2002B3AD086
:10540C00FB681B8D002B36D13A6BF8687B690093D7
:10541C0013000022802100F095FB031E01D0012314
:10542C0053E0FB685B8D9BB2FF2B11D9FB68FF220D
:10543C001A85FB681B8DDAB280235C040A23FB18E7
:10544C001988F86800230093230000F0AFFC12E0E9
:10545C00FB685B8D9AB2FB681A85FB681B8DDAB210
:10546C0080239C040A23FB181988F86800230093F6
:10547C00230000F09BFCFB685B8D9BB2002B98D14A
:10548C007A69396BFB68180000F0DAFB031E01D057
:10549C0001231AE0FB681B682022DA61FB681B6899
:1054AC005A68FB681B680B490A405A60FB6841222A
:1054BC0020219954FB68422200219954FB68402218
:1054CC0000219954002300E002231800BD4607B0C8
:1054DC0090BDC04600E800FE90B589B002AFF86000
:1054EC000C00100019000A23FB18221C1A80082338
:1054FC00FB18021C1A80BB1D0A1C1A80FB68412277
:10550C009B5CDBB2202B00D010E1BB6A002B04D0DB
:10551C002C23FB181B88002B05D1FB6880229200E2
:10552C005A64012303E1FB6840229B5C012B01D1EF
:10553C000223FCE0FB68402201219954FEF7AAFEED
:10554C0003007B6180231902F8687B69009319239F
:10555C00012200F0F7FA031E01D00123E7E0FB68FB
:10556C00412222219954FB68422240219954FB6824
:10557C0000225A64FB68BA6A5A62FB682C22BA1879
:10558C0012885A85FB6800225A63BB1D1C880823AD
:10559C00FB181A880A23FB181988F8687B69019391
:1055AC003B6B0093230000F049FA031E05D0FB6807
:1055BC004022002199540123B9E0FB685B8D9BB21A
:1055CC00FF2B11D9FB68FF221A85FB681B8DDAB201
:1055DC0080235C040A23FB181988F868564B009347
:1055EC00230000F0E3FB12E0FB685B8D9AB2FB68D2
:1055FC001A85FB681B8DDAB280239C040A23FB18E6
:10560C001988F8684C4B0093230000F0CFFB3A6BE1
:10561C00F8687B69009313000022042100F092FAD1
:10562C00031E01D0012382E0FB681B685A6AFB68E9
:10563C005B6AD2B21A70FB685B6A5A1CFB685A62CE
:10564C00FB681B8D013B9AB2FB681A85FB685B8D6E
:10565C009BB2013B9AB2FB685A85FB685B8D9BB28F
:10566C00002B3AD0FB681B8D002B36D13A6BF868B7
:10567C007B69009313000022802100F063FA031E63
:10568C0001D0012353E0FB685B8D9BB2FF2B11D93A
:10569C00FB68FF221A85FB681B8DDAB280235C0441
:1056AC000A23FB181988F86800230093230000F0E4
:1056BC007DFB12E0FB685B8D9AB2FB681A85FB6878
:1056CC001B8DDAB280239C040A23FB181988F86816
:1056DC0000230093230000F069FBFB685B8D9BB2F9
:1056EC00002B94D17A69396BFB68180000F0A8FA8A
:1056FC00031E01D001231AE0FB681B682022DA612B
:10570C00FB681B685A68FB681B680C490A405A60A6
:10571C00FB68412220219954FB68422200219954B4
:10572C00FB68402200219954002300E0022318005A
:10573C00BD4607B090BDC0460024008000E800FEC6
:10574C0080B58AB002AFF8607A603B600A23FB1820
:10575C000A1C1A8000237B61FB6841229B5CDBB234
:10576C00202B00D0FEE0FB681B689A6980231B028B
:10577C001A4080231B029A4201D10223F3E0FB68FA
:10578C0040229B5C012B01D10223ECE0FB68402200
:10579C0001219954FB68412224219954FB68002271
:1057AC005A64FB68DB68012B07D10A23FB181B88A2
:1057BC009B059B0D6E4A1A4307E00A23FB181B88B6
:1057CC009B059B0DA02292011A43FB681B685A6033
:1057DC00FEF760FD0300BB61FB681B689B69202220
:1057EC001340203B5A425341DAB21F23FB181A7064
:1057FC00FB681B689B6910221340103B5A425341B3
:10580C00DAB21E23FB181A7035E03B6801331AD04C
:10581C00FEF740FD0200BB69D31A3A689A4202D3E4
:10582C003B68002B0FD1FB68412220219954FB6867
:10583C005B6C20221A43FB685A64FB6840220021EF
:10584C00995401238FE0FB681B689B69202213404D
:10585C00203B5A425341DAB21F23FB181A70FB68E3
:10586C001B689B6910221340103B5A425341DAB219
:10587C001E23FB181A701F23FB181B78002B04D156
:10588C001E23FB181B78002BBFD0FB681B689B6981
:10589C0010221340102B1AD03A68F868BB69009399
:1058AC0013000022202100F04DF9031E01D001232A
:1058BC0059E0FB681B682022DA61FB684122202139
:1058CC009954FB6840220021995400234BE03A681C
:1058DC00F868BB69009313000022202100F032F914
:1058EC00031E01D001233EE0FB681B681022DA6125
:1058FC00FB681B682022DA617B697A689A4219D1AD
:10590C00FB681B685A68FB681B688021C9010A4345
:10591C005A603A68F868BB69009313000022202192
:10592C0000F010F9031E01D001231CE0FB681B687A
:10593C002022DA617B6901337B617B697A689A4248
:10594C0000D92EE7FB68412220219954FB685B6C3F
:10595C0020221A43FB685A64FB68402200219954A8
:10596C00012300E002231800BD4608B080BDC046EC
:10597C0000200002B0B586B002AFF8600C00100039
:10598C0019000A257B19221C1A800823FB18021CFB
:10599C001A80BB1D0A1C1A80BB1D1B88DAB280231F
:1059AC005C047B191988F868234B0093230000F0E2
:1059BC00FDF97A6A396AFB68180000F002F9031ED7
:1059CC0001D0012333E0BB1D1B88012B07D1082319
:1059DC00FB181B88DAB2FB681B689A6219E0082373
:1059EC00FB181B881B0A9BB2DAB2FB681B689A6215
:1059FC007A6A396AFB68180000F0E3F8031E01D0DC
:105A0C00012314E00823FB181B88DAB2FB681B681F
:105A1C009A623A6AF8687B6A00931300002280212C
:105A2C0000F090F8031E01D0012300E000231800C1
:105A3C00BD4604B0B0BDC04600200080B0B586B0F5
:105A4C0002AFF8600C00100019000A257B19221C0B
:105A5C001A800823FB18021C1A80BB1D0A1C1A8012
:105A6C00BB1D1B88DAB27B191988F868234B00938D
:105A7C00002300F09BF97A6A396AFB68180000F081
:105A8C00A0F8031E01D0012333E0BB1D1B88012BA2
:105A9C0007D10823FB181B88DAB2FB681B689A62D3
:105AAC0019E00823FB181B881B0A9BB2DAB2FB68AF
:105ABC001B689A627A6A396AFB68180000F081F8F0
:105ACC00031E01D0012314E00823FB181B88DAB253
